:020000040800F2
:10000000686D002045010008A5150008A715000827
:10001000AB150008AF150008B3150008000000007C
:10002000000000000000000000000000B7150008FC
:10003000B915000800000000BB150008BD15000838
:100040005F0100085F0100085F0100085F01000810
:100050005F0100085F010008BF1500085F0100088C
:100060005F0100085F0100085F0100085F010008F0
:100070005F0100085F0100085F0100085F010008E0
:100080005F0100085F0100085F0100085F010008D0
:100090005F0100085F0100085F0100085F010008C0
:1000A0005F0100085F0100085F0100085F010008B0
:1000B0005F0100085F0100085F0100085F010008A0
:1000C0005F0100085F0100085F0100085F01000890
:1000D0005F0100085F0100085F0100085F01000880
:1000E000091600085F0100085F0100085F010008B1
:1000F0005F0100085F0100085F0100085F01000860
:100100005F0100085F0100085F0100085F0100084F
:100110005F0100085F0100085F0100085F0100083F
:100120005F0100085F0100085F0100085F0100082F
:10013000DFF80CD007F00CF80048004779120008EF
:10014000686D00200648804706480047FEE7FEE746
:10015000FEE7FEE7FEE7FEE7FEE7FEE7FEE7FEE777
:1001600047020008310100080CB500200190009002
:100170006C48006840F480306A49086000BF6948F4
:10018000006800F4003000900198401C0190009835
:1001900018B90198B0F5A06FF1D16248006800F479
:1001A000003010B10120009001E000200090009884
:1001B000012843D15C48006840F010005A490860AB
:1001C0000846006820F0030008600846006840F018
:1001D0000200086053484068524948600846406839
:1001E00048600846406840F48060486008464068BF
:1001F00020F47C1048600846406840F4E8104860ED
:100200000846006840F08070086000BF45480068FC
:1002100000F000700028F9D04248406820F0030048
:10022000404948600846406840F00200486000BF0E
:100230003C48406800F00C000828F9D10CBD10B50E
:10024000FFF792FF10BD10B53648006840F001007E
:1002500034490860084640683449084031494860DC
:1002600008460068324908402E4908600846006880
:1002700020F4802008600846406820F4FE004860B2
:100280004FF41F008860FFF7DAFF4FF00060294944
:10029000086010BD10B5002100200022214B5B68D2
:1002A00003F00C0121B1042906D0082928D107E068
:1002B000214B224C236027E01F4B204C236023E07E
:1002C000184B5B6803F47010164B5B6803F48032C4
:1002D000022303EB904022B9194B4343174C236090
:1002E0000DE0104B5B6803F4003323B1144B434320
:1002F000124C236003E0104B4343104C236003E097
:100300000D4B0E4C236000BF00BF064B5B68C3F370
:1003100003130C4CE15C094B1B68CB40074C23607A
:1003200010BD000000100240002002400000FFF855
:10033000FFFFF6FE08ED00E000127A00000000204A
:1003400000093D0004000020002044490860091D08
:100350000860091D0860091D086041483F491431C3
:100360000860704700213D498279002A3AD00A4648
:10037000126803689A430B461A600A1D12680368E4
:100380009A430B1D1A60027911440A6803681A43E4
:100390000A60324A0832126803689A432F4B0833C6
:1003A0001A601A1D126803689A432C4B0C331A60AA
:1003B0004279102A0ED11A1F126803681A43274B7C
:1003C00008331A601A1D126803681A43234B0C3352
:1003D0001A600DE02149427911440A6803681A4302
:1003E0000A6005E0027911440A6803689A430A60CA
:1003F00070470021016001710C2141710021817160
:1004000070471649103109680143144A10321160CF
:10041000704701460020114A143212680A400AB19E
:10042000012000E0002070470C491431086070473B
:10043000014600200022094B1B6803EA0102074B1A
:1004400014331B680B4013B10AB1012000E00020F7
:1004500070470249143108607047000000040140F1
:10046000FFFF0F0010B50446CC48844208D101219B
:10047000042000F02DFB0021042000F029FB46E0C1
:10048000C748844208D10121082000F021FB002147
:10049000082000F01DFB3AE0C248844208D1012147
:1004A000102000F015FB0021102000F011FB2EE0C1
:1004B000BD48844208D10121202000F009FB002121
:1004C000202000F005FB22E0B848844208D1012139
:1004D000402000F0FDFA0021402000F0F9FA16E07B
:1004E000B348844208D10121802000F0F1FA0021B4
:1004F000802000F0EDFA0AE0AE48844207D10121E5
:10050000801500F0E5FA0021A01500F0E1FA10BD19
:1005100010B50121084600F0DBFA0021012000F0AF
:10052000D7FA10BD2DE9F041024600250026002033
:1005300000230024002791F803C00CF00F0591F868
:1005400003C00CF0100CBCF1000F03D091F802C0F6
:100550004CEA050591F800C0BCF1000F31D01468D9
:1005600000202BE04FF0010C0CFA00F3B1F800C0B2
:100570000CEA03069E4220D183004FF00F0C0CFAC8
:1005800003F7BC4305FA03FC4CEA040491F803C0EA
:10059000BCF1280F06D14FF0010C0CFA00FCC2F898
:1005A00014C00AE091F803C0BCF1480F05D14FF028
:1005B000010C0CFA00FCC2F810C0401C0828D1D372
:1005C0001460B1F800C0BCF1FF0F34DD54680020A6
:1005D0002EE000F1080C4FF0010808FA0CF3B1F816
:1005E00000C00CEA03069E4221D183004FF00F0C9D
:1005F0000CFA03F7BC4305FA03FC4CEA040491F837
:1006000003C0BCF1280F05D100F1080C08FA0CF862
:10061000C2F8148091F803C0BCF1480F07D100F173
:10062000080C4FF0010808FA0CF8C2F81080401CC2
:100630000828CED35460BDE8F0814FF6FF710180E9
:10064000022181700421C170704702460020936826
:100650000B400BB1012000E0002070470146886884
:1006600080B2704702460020D3680B400BB10120D6
:1006700000E0002070470146C86880B27047016101
:100680007047416170470AB1016100E04161704704
:10069000C16070474FF480320A4382618161826198
:1006A00082698269704702460020434B18684FF602
:1006B0008073184040EA021008433F4B18607047AF
:1006C0003E49C8617047F0B50A4600230024002166
:1006D000002500F00046B6F1004F02D1364EF16918
:1006E00001E0354E7168C0F3034583B200F4401653
:1006F000B6F5401F08D121F070612F4E766826F0C4
:1007000070662D4F7E6012E000F48016B6F5801FF3
:1007100006D1032606FA05F4A14341F0706106E014
:10072000460D360103FA06F6B14341F0706122B17D
:10073000460D360103FA06F6314300F00046B6F1E5
:10074000004F02D11C4EF16101E01B4E7160F0BD03
:1007500030B500228B071C0F0F2303FA04F2164B4F
:1007600008338C1053F824309343134C08348D1005
:1007700044F8253023468C1053F824308C07240F7E
:1007800000FA04F423430C4C08348D1044F825304F
:1007900030BD0A49DC3108607047000000080140A4
:1007A000000C0140001001400014014000180140FD
:1007B000001C0140002001400000014000002042D8
:1007C000DF48006840F00100DD49086008464068E5
:1007D000DC490840DA49486008460068DA490840C0
:1007E000D74908600846006820F480200860084661
:1007F000406820F4FE0048604FF41F008860704796
:10080000CF49096821F48031CD4A11601146096849
:1008100021F480211160B0F5803F03D0B0F5802F26
:100820000ED106E0C649096841F48031C44A11601E
:1008300007E0C349096841F4A021C14A116000E002
:1008400000BF00BF704710B5014600220023002002
:100850004A11012A02D1BA4C236806E0022A02D1C9
:10086000B74C236A01E0B64C636A01F01F02012411
:1008700094401C400CB1012000E0002010BD38B5B0
:10088000002000900024002500BF3120FFF7DBFF8F
:1008900005460098401C00900098B0F5A06F01D06C
:1008A000002DF2D03120FFF7CEFF08B1012400E087
:1008B0000024204638BD01460020A14A106820F0DF
:1008C000F80040EAC10010607047A0490860704716
:1008D000024600209A4B586820F47C1042EA01033B
:1008E0001843974B5860704798490866704701460F
:1008F0000020934A506820F003000843506070477E
:100900008F48406800F00C007047014600208C4A78
:10091000506820F0F0000843506070470146002006
:10092000874A506820F4E0600843506070470146F1
:100930000020834A506820F4605040EAC1005060B3
:10094000704729B17E4A527A02437D4B5A7204E0C5
:100950007B4A527A82437A4B5A7270477B49D8312C
:100960000860704701460020754A506820F44040F6
:100970000843506070470021714A20321170704A5C
:1009800082F82010012802D004280AD104E00121B5
:100990006B4A2032117005E00521694A203211703E
:1009A00000E000BF00BF70476949086070476449B4
:1009B000096A0143624A1162704765494439086017
:1009C000704730B500210022002400235C4D6D6883
:1009D00005F00C0121B1042905D0082923D105E037
:1009E0005C4D056022E05B4D05601FE0544D6D6875
:1009F00005F47012524D6D6805F48034022505EB44
:100A000092421CB9544D554305600BE04C4D6D6846
:100A100005F400351DB1504D5543056002E04D4DC4
:100A20005543056002E04B4D056000BF00BF444DDB
:100A30006D6805F0F0010909484D6B5C0568DD4003
:100A400045603F4D6D6805F4E061090A434D6B5CFC
:100A50004568DD4085603A4D6D6805F46051C90A0E
:100A60003E4D6B5C4568DD40C560354D6D6805F4F5
:100A70004041890B3A4D6B5CC568B5FBF3F50561E8
:100A800030BD29B12E4A526902432D4B5A6104E010
:100A90002B4A526982432A4B5A61704729B1284A2E
:100AA00092690243264B9A6104E0254A9269824387
:100AB000234B9A61704729B1214AD2690243204BE6
:100AC000DA6104E01E4AD26982431D4BDA61704745
:100AD00029B11B4AD2680243194BDA6004E0184A74
:100AE000D2688243164BDA60704729B1144A126902
:100AF0000243134B1A6104E0114A12698243104BFE
:100B00001A61704712494039086070470F49C8643C
:100B100070470B49C87170470948406A40F08070BF
:100B200007494862704701460020054A92680A401A
:100B30000AB1012000E00020704701498872704727
:100B4000001002400000FFF8FFFFF6FE00004242E6
:100B50008004424200127A0000093D001400002087
:100B60002400002010B50446BE48844208D101216B
:100B70008014FFF7ADFF0021A014FFF7A9FF16E0D6
:100B8000B948844208D101210014FFF7AEFF0021CB
:100B90002014FFF7AAFF0AE0B448844207D10121DC
:100BA000C013FFF7A2FF0021E013FFF79EFF10BD67
:100BB00010B50022028802F441520B884C8823436E
:100BC0008C882343CC8823430C8923434C892343BB
:100BD0008C892343CC8923431A430280838B4FF2B1
:100BE000FF74234083830B8A038210BD2DE9F04FED
:100BF00085B005460C464FF0000902274FF000086B
:100C00004FF0010B0026B246A88B4FF2400108407E
:100C1000A88302202884B5F81C90A068022801D17E
:100C200000BF38E0A08810B94FF0010B01E04FF091
:100C3000020B8D48854200D100E000BF6846FFF7F7
:100C4000C0FEDDF800A0E088B0F5007F0AD14FEAD1
:100C50001A2000EB80004000A168B0FBF1F0401DBD
:100C600086B20BE04FEA4B10BAFBF0F000EB8000CD
:100C70004000A168B0FBF1F0401D86B20A20B6FB2F
:100C8000F0F606F00108A6EB0800C0F34F074FF698
:100C9000FF7000EA0828022F01DBFF2F02DD022788
:100CA0004FF00008E08840EA080038432884A08814
:100CB000A1890843618808432188084340F4006003
:100CC00040EA0909A5F81C9005B0BDE8F08F0021A5
:100CD000018041808180C180018141818181C18108
:100CE0000721018270470021018041808180C180FD
:100CF0000221816000218181704721B1028842F088
:100D00004002028004E002884FF6BF731A4002805E
:100D1000704721B1828B42F48062828304E0828B2F
:100D20004FF6FF331A408283704730B5002400230A
:100D30000C110125A540ABB21AB185881D438580F1
:100D400002E085889D43858030BD1AB183880B43BE
:100D5000838002E083888B43838070478181704762
:100D60000146888970474FF6FF62914204D002889D
:100D700042F48072028004E002884FF6FF631A405A
:100D80000280704721B1828842F00402828004E030
:100D900082884FF6FB731A408280704702884FF2B8
:100DA000FF731A40028002880A430280704701885C
:100DB00041F480510180704721B1028842F4005211
:100DC000028004E002884DF6FF731A4002807047EB
:100DD00002460020012901D0108B00E0908A704764
:100DE0000146088A7047B1F5804F04D1028842F469
:100DF0008042028004E002884BF6FF731A400280B2
:100E000070470246002013890B400BB1012000E01F
:100E100000207047CA4302817047F0B502460020A7
:100E200000240023002501F00F070126BE40B4B2C4
:100E30000B1101269E40B3B2968806EA0305168977
:100E4000264016B10DB1012000E00020F0BD10B524
:100E5000002201F00F040123A3409AB2D34303817F
:100E600010BD00000030014000380040003C004050
:100E700010B50446FB48844209D101218803FFF7DD
:100E800027FE00214FF48040FFF722FE32E0F648B3
:100E9000844209D101214804FFF727FE00214FF4C5
:100EA0000030FFF722FE25E0F048844209D10121FD
:100EB0008804FFF71AFE00214FF48020FFF715FE8B
:100EC00018E0EB48844209D10121C804FFF70DFE68
:100ED00000214FF40020FFF708FE0BE0E5488442B4
:100EE00008D101210805FFF700FE00214FF4801012
:100EF000FFF7FBFD10BD2DE9F04786B005460E4615
:100F00000024A24600BFA1460027B08900B100BF5F
:100F10002F462C8A4CF6FF700440F08804432C8244
:100F2000AC894EF6F3100440B088318908437189CA
:100F300008430443AC81AC8A4FF6FF400440B089BB
:100F40000443AC8201A8FFF73CFDC648874202D1AA
:100F5000DDF810A001E0DDF80CA0A88900F4004045
:100F600040B10AEBCA0000EB0A1031684900B0FB3F
:100F7000F1F807E00AEBCA0000EB0A1031688900BB
:100F8000B0FBF1F86420B8FBF0F004012009642103
:100F900001FB1089A88900F4004040B1322000EB29
:100FA000C900B0FBF1F000F00700044308E0322074
:100FB00000EB09106421B0FBF1F000F00F000443D6
:100FC0002C8106B0BDE8F0874FF416510160002176
:100FD0008180C18001810C21418100218181704784
:100FE00010B502460020108A4FF2FF0318400B880C
:100FF0004C8823438C882343CC8823431843108296
:1010000010BD0021018041808180C180704721B1E5
:10101000828942F40052828104E082894DF6FF7396
:101020001A4082817047F0B503460024002600254F
:10103000002040F66A17B94200D100BF1846C1F33C
:10104000421401F01F06012707FA06F5012C01D111
:101050000C3004E0022C01D1103000E014301AB141
:1010600007682F43076002E00768AF430760F0BDE1
:101070001AB1838A0B43838202E0838A8B43838283
:101080007047028A4FF6F0731A400282028A0A43BE
:101090000282704782894FF2FF731A4082818289EF
:1010A0000A438281704721B1828942F00202828123
:1010B00004E082894FF6FD731A4082817047028AEC
:1010C0004FF6DF731A400282028A0A430282704797
:1010D00021B1028A42F48042028204E0028A4BF685
:1010E000FF731A4002827047C1F308028280704782
:1010F00001468888C0F308007047818941F00101EA
:1011000081817047028BD2B20283028B42EA0122B4
:1011100002837047028B02F47F420283028B0A43F0
:101120000283704721B1828A42F02002828204E069
:10113000828A4FF6DF731A408282704721B1828A19
:1011400042F01002828204E0828A4FF6EF731A4066
:101150008282704721B1828A42F00802828204E0D2
:10116000828A4FF6F7731A408282704721B18289D2
:1011700042F40042828103E08289C2F30E0282813E
:10118000704721B1828A42F40062828204E0828A3E
:101190004FF2FF731A4082827047828A4FF6FB73C8
:1011A0001A408282828A0A438282704721B1828AEF
:1011B00042F00202828204E0828A4FF6FD731A40F6
:1011C0008282704702460020B1F5007F00D100BF47
:1011D00013880B400BB1012000E00020704701F4A0
:1011E0000072B2F5007F00D100BFCA430280704791
:1011F00070B50246002400230025002040F66A1640
:10120000B14200D100BFC1F3421501F01F03012616
:1012100006FA03F3012D02D19689334006E0022D30
:1012200002D1168A334001E0968A33400C1201261F
:1012300006FA04F41688344013B10CB1012000E022
:10124000002070BD10B50022002340F66A14A142B0
:1012500000D100BF0A1201249440A3B2DC430480F1
:1012600010BD00000038014000440040004800402C
:10127000004C004000500040082006F04FF9AB49F8
:10128000086008460068AA49086000F079FC00F090
:1012900007FA02F0E3F8A7480168A7A005F0BEFF2F
:1012A000AA480168AAA005F0B9FFA8480168A8A04B
:1012B00005F0B4FFAB488168ABA005F0AFFFA948CB
:1012C0008168A9A005F0AAFF984800680178ABA042
:1012D00005F0A4FF032000F0DFFBAC4801F076FA34
:1012E00000214FF4784001F077FAA9480388A94813
:1012F00002880021084600F09AFC2BE002F0EFF88B
:10130000A549086008460068401C68B1087888490B
:101310000A688649096802F05BFA00BF02F0DFF84C
:101320009D4909688842F9D002F09AF99B49086002
:1013300008460068401C68B108787D490A687B4906
:10134000096802F045FA00BF02F08AF9934909687A
:101350008842F9D0D2E701B502E00098401E009023
:1013600000980028F9D108BD38B58D480078401C98
:101370008B490870854801F029FA00214FF4784024
:1013800001F02AFA82480388824802880021084630
:1013900000F04DFC4FF4FC6001F02AFA01F019FA5C
:1013A000C08800EB800084B2204601F027FA01F0EB
:1013B00010FAC088C0EBC00084B2204601F01EFACB
:1013C0001F2001F015FA4FF4784001F011FAE623DE
:1013D000D222AA21322000F080FCF023D222C821A0
:1013E000322000F07AFC4FF4FC6001F001FAE623B1
:1013F000C822AA21642000F070FCF023DC22C8215E
:10140000084600F06AFC1F2001F0F2F9E6236E2284
:10141000AA21104600F061FCF023DC22C8218220C2
:1014200000F05BFC6FF07F40FFF795FF58480088A5
:10143000803883B2574802888021002000F0F7FBF3
:1014400001F0C7F9C088C0EBC00084B2204601F0AB
:10145000D5F91F2001F0CCF94FF4784001F0C8F91C
:1014600001201E236422C8210090322000F085FC58
:101470004FF4FC6001F0BCF9002028231422C8219D
:101480000090A02000F079FC1F2001F0B1F90120AC
:1014900014233222C8210090AA2000F06EFC6FF0C5
:1014A0007F40FFF758FF3A480088803883B23948B8
:1014B00002888021002000F0BAFB01F08AF9C08880
:1014C000C0EBC00084B2204601F098F91F2001F063
:1014D0008FF94FF4784001F08BF900231422C821D2
:1014E000642000F08CFC4FF4FC6001F081F90123D2
:1014F0000A22C821642000F082FC1F2001F078F944
:1015000000231422C8218C2000F079FC6FF07F406A
:10151000FFF721FF1E480088803883B21D480288EB
:101520008021002000F083FB38BD00003000002047
:1015300034000020080801404750494F412D3E49E2
:1015400044523A307825780A00000000080C014027
:101550004750494F422D3E4944523A307825780A47
:1015600000000000001001404750494F432D3E4904
:1015700044523A307825780A0000000062756666A9
:10158000657220307825780A000000007400002081
:101590006600002064000020380000203C0000208D
:1015A00060000020704700BFFEE700BFFEE700BFFD
:1015B000FEE700BFFEE7704770477047704710B501
:1015C0000120FEF735FF58B12CA005F027FE2D486D
:1015D000C06880F004002B49C8600120FEF739FF85
:1015E00010BD10B54FF40050FEF722FF58B126A0F1
:1015F00005F014FE2348C06880F008002149C86047
:101600004814FEF726FF10BD7CB54FF40050FEF7DE
:101610000FFF48B31EA005F001FE1A48C06880F015
:1016200008001849C8601C480078401C1A49087016
:1016300008460078142190FBF1F0401C84B2164853
:10164000007890FBF1F201FB120085B2002013A19B
:1016500010231A46CDE900102146284600F0ADFFC0
:101660004FF40050FEF7F5FE7CBD01B502E0009896
:10167000401E009000980028F9D108BD6B657931B3
:1016800000000000001001406B657932000000008E
:101690006B6579620000000061000020E992A600FD
:1016A00000B585B001210420FFF7F8F90121880376
:1016B000FFF7F4F94FF40070ADF8100018208DF822
:1016C000130003208DF8120004A92248FEF72AFF18
:1016D0004FF48060ADF8100004208DF8130004A9C9
:1016E0001C48FEF71FFF4FF4E13000900020ADF8DA
:1016F0000400ADF80600ADF80800ADF80C000C20B1
:10170000ADF80A0069461448FFF7F5FB01211248BD
:10171000FFF77DFC05B000BD70B504460D46E1B293
:101720000D48FFF7E1FC00BF80210B48FFF74AFDA1
:101730000028F9D0204670BD10B5044600BF202116
:101740000548FFF73FFD0028F9D00348FFF7D0FC1C
:1017500010BD0000000801400038014001B502E062
:101760000098401E009000980028F9D108BD08B5E7
:1017700001210846FFF792F901213820FFF78EF981
:101780000121F748FEF79FFF03208DF8020010208B
:101790008DF803004FF6FF70ADF800006946F14880
:1017A000FEF7C0FE2020ADF800006946EE48FEF7C7
:1017B000B9FE4020ADF800006946EB48FEF7B2FEE6
:1017C0001020ADF800006946E748FEF7ABFE802028
:1017D000ADF800006946E448FEF7A4FE0420ADF829
:1017E00000006946E148FEF79DFE08BD10B54FF6C2
:1017F000FF70FFF7B3FFCF2005F0E8FC002005F0F5
:10180000F9FC812005F0F6FC302005F0F3FC4FF6E2
:10181000FF70FFF7A3FFED2005F0D8FC642005F072
:10182000E9FC032005F0E6FC122005F0E3FC812032
:1018300005F0E0FC4FF6FF70FFF790FFE82005F0A1
:10184000C5FC852005F0D6FC102005F0D3FC7820DF
:1018500005F0D0FC4FF6FF70FFF780FFCB2005F0BE
:10186000B5FC392005F0C6FC2C2005F0C3FC002097
:1018700005F0C0FC342005F0BDFC022005F0BAFCE8
:101880004FF6FF70FFF76AFFF72005F09FFC20205E
:1018900005F0B0FC4FF6FF70FFF760FFEA2005F09F
:1018A00095FC002005F0A6FC002005F0A3FC4FF6F7
:1018B000FF70FFF753FFB12005F088FC002005F012
:1018C00099FC1B2005F096FC4FF6FF70FFF746FFD2
:1018D000B62005F07BFC0A2005F08CFCA22005F068
:1018E00089FC4FF6FF70FFF739FFC02005F06EFC52
:1018F000352005F07FFC4FF6FF70FFF72FFFC1206A
:1019000005F064FC112005F075FCC52005F05EFCB7
:10191000452005F06FFC452005F06CFCC72005F064
:1019200055FCA22005F066FCF22005F04FFC0020DB
:1019300005F060FC262005F049FC012005F05AFC6A
:101940004FF6FF70FFF70AFFE02005F03FFC0F2085
:1019500005F050FC262005F04DFC242005F04AFC43
:101960000B2005F047FC0E2005F044FC092005F093
:1019700041FC542005F03EFCA82005F03BFC46202D
:1019800005F038FC0C2005F035FC172005F032FC82
:10199000092005F02FFC0F2005F02CFC072005F096
:1019A00029FC002005F026FCE12005F00FFC0020BA
:1019B00005F020FC192005F01DFC1B2005F01AFC89
:1019C000042005F017FC102005F014FC072005F09A
:1019D00011FC2A2005F00EFC472005F00BFC3920F5
:1019E00005F008FC032005F005FC062005F002FCCC
:1019F000062005F0FFFB302005F0FCFB382005F049
:101A0000F9FB0F2005F0F6FB4FF6FF70FFF7A6FE7F
:101A1000362005F0DBFBC82005F0ECFB4FF6FF702D
:101A2000FFF79CFE2A2005F0D1FB002005F0E2FB29
:101A3000002005F0DFFB002005F0DCFBEF2005F0C7
:101A4000D9FB4FF6FF70FFF789FE2B2005F0BEFB98
:101A5000002005F0CFFB002005F0CCFB012005F0B5
:101A6000C9FB3F2005F0C6FB4FF6FF70FFF776FE7F
:101A70003A2005F0ABFB552005F0BCFB112005F02A
:101A8000A5FB3B48FFF76AFE4FF6FF70FFF766FEC7
:101A9000292005F09BFB10BD10B50446072C00DD86
:101AA00010BD34480470204604EBD0714910A4EBFB
:101AB000410139B9F020304908804FF4A0702F4916
:101AC000088006E04FF4A0702B490880F0202B49D5
:101AD0000880362005F07AFB082141EA441005F021
:101AE00089FB2A2005F072FB002005F083FB002013
:101AF00005F080FB20490988491EC1F3072005F045
:101B000079FB1D490978491EC8B205F073FB2B20EB
:101B100005F05CFB002005F06DFB002005F06AFB82
:101B200016490988491EC1F3072005F063FB1349D4
:101B30000978491EC8B205F05DFB2C2005F046FB74
:101B400000BFADE710B5044624B104210748FEF7F5
:101B500098FD03E004210548FEF791FD10BD00004B
:101B600000023000000C0140001001400014014050
:101B7000FCBF020068000020640000206600002016
:101B800010B5FFF7F4FD0120FFF7DCFFFFF72EFE95
:101B9000FE480078FFF780FF10BD2DE9F0410446B4
:101BA0000D4616461F462A2005F010FB201205F0B0
:101BB00021FBE0B205F01EFBA119491EC1F30F2065
:101BC00005F018FBA119491EC8B205F013FB2B2024
:101BD00005F0FCFA281205F00DFBE8B205F00AFB4F
:101BE000E919491EC1F30F2005F004FBE919491E4C
:101BF000C8B205F0FFFABDE8F08170B504460D46A5
:101C000001231A4629462046FFF7C7FF70BD70B56D
:101C100004460D4600262C2005F0D8FA00BF03E04C
:101C2000284605F0E7FA761CA642F9D370BD2DE9E7
:101C3000F04106460F4614461D4606FB04F086B2E8
:101C400007FB05F087B22B46224639463046FFF7A0
:101C5000A4FF04FB05F0CE490988FFF7D8FFBDE8D3
:101C6000F08170B505460C46CA48008885420CDAFA
:101C7000C9480088844208DA21462846FFF7BDFF9C
:101C8000C64801880120FFF7C2FF70BD70B500246F
:101C9000002500262E2005F099FA05F06BFA04467F
:101CA00005F068FA044605F065FA064605F062FAA2
:101CB0000546E012C002A91240EA411040EAE620BF
:101CC00070BD70B504460D4629462046FFF795FFC6
:101CD000FFF7DCFF0646304670BD2DE9FF4F83B0AD
:101CE00081464FF0000AD3460598A0EB09050499F8
:101CF0000698461ACDF8049004980090002D01DD56
:101D0000012705E00DB9002702E04FF0FF376D42D3
:101D1000002E02DD4FF0010806E016B94FF0000872
:101D200002E04FF0FF387642B54201DD2C4600E07C
:101D300034460020029019E0DDE90010FFF791FF22
:101D4000AA44B344A24505DDAAEB040A019838442D
:101D500080B20190A34505DDABEB040B0098404435
:101D600080B200900298401C80B20290611C0298E0
:101D70008842E1DD07B0BDE8F08F2DE9F04104466F
:101D80000D4616461F46DDF81880B8F1000F0CD03E
:101D90003B46324629462046FFF7FFFE06FB07F08A
:101DA0007E490988FFF733FF27E0A019401E82B261
:101DB0002B4629462046FFF790FFE819401E83B2C4
:101DC000A019401E82B2E819401E81B22046FFF7DA
:101DD00084FFE819401E83B2224629462046FFF7B9
:101DE0007CFFE919491E8BB2A119491E8AB2A119BB
:101DF000491E88B22946FFF770FFBDE8F0812DE942
:101E0000F05F05460E4691469B4600240FFA89F77F
:101E10000320A0EB49000FFA80FA87E0BBF1000F26
:101E200040D0A0463BE006EB080291B22A1990B2DE
:101E3000FFF717FF06EB080291B22A1B90B2FFF7DB
:101E400010FF321991B2A5EB080290B2FFF709FF1B
:101E5000321B91B2A5EB080290B2FFF702FFA6EB8E
:101E6000080291B22A1B90B2FFF7FBFEA6EB080214
:101E700091B22A1990B2FFF7F4FE321B91B205EB32
:101E8000080290B2FFF7EDFE321991B205EB08029D
:101E900090B2FFF7E6FE08F101000FFA80F8B845AE
:101EA000C1DD2FE0F21991B22A1990B2FFF7D9FEE5
:101EB000F21991B22A1B90B2FFF7D3FE321991B2F8
:101EC000EA1B90B2FFF7CDFE321B91B2EA1B90B233
:101ED000FFF7C7FEF21B91B22A1B90B2FFF7C1FEBB
:101EE000F21B91B22A1990B2FFF7BBFE321B91B2DE
:101EF000EA1990B2FFF7B5FE321991B2EA1990B221
:101F0000FFF7AFFE601C04B2BAF1000F05DAA000C3
:101F1000801D50440FFA80FA07E0E01B80000A3071
:101F200050440FFA80FA781E07B200BFBC427FF718
:101F300075AFBDE8F09F2DE9F05F804689461646F3
:101F4000A6F120001FFA80FA154909688988144A09
:101F50001268D28801FB02F0C11700EB5171C1F386
:101F6000C7070F48006800680AFB070B0C480068A9
:101F7000C3880B480068828849464046FFF70DFE3B
:101F80002C2005F023F9002423E000006800002045
:101F90007200002064000020660000207000002015
:101FA0006C000020002510E01BF80400802129416E
:101FB000084020B1FE48008805F01CF903E0FD4808
:101FC000008805F017F9681CC5B2082DECDB601C11
:101FD000C4B2BC42E6DBBDE8F09F70B504460D46D6
:101FE000002624E03046F449096889880844F3490A
:101FF0000988884205DD0026EF480068C088204433
:1020000084B22046EC490968C9880844EC4909882B
:10201000884201DD002600242A7821463046FFF759
:102020008AFF6D1CE44800688088304486B22878B6
:102030000028D7D170BD70B505460E46144624E081
:102040002846DD49096889880844DC4909888842AE
:1020500005DD0025D8480068C088304486B2304687
:10206000D5490968C9880844D5490988884201DDED
:1020700000250026227831462846FFF75CFF641CC5
:10208000CD4800688088284485B220780028D7D1C0
:1020900070BD70B505460E46144624E03046C6496C
:1020A0000968C9880844C6490988884205DD0026B0
:1020B000C14800688088284485B22846BE4909681E
:1020C00089880844BD490988884201DD0025002629
:1020D000227831462846FFF72EFF641CB648006878
:1020E000C088304486B220780028D7D170BD2DE951
:1020F000F04389B080468946174610231A46494660
:102100004046FFF74AFD2C2005F060F8394601A84B
:1021100000F0CAFB002422E001A810F814604FF67A
:10212000FF7000EA0626012000EB440001A9085CCC
:10213000064300250FE04FF400402841304020B115
:102140009B48008805F056F803E09A48008805F09F
:1021500051F8681CC5B2102DEDDB601CC4B2102C08
:10216000DADB09B0BDE8F0832DE9F04105460E4603
:1021700014461FE02846103090490988884203DD44
:10218000002506F1100086B2304610308C490988CF
:10219000884201DD002500262788380200EB272031
:1021A00087B2224631462846FFF7A1FF05F110000D
:1021B00085B2083420680028DCD1BDE8F0812DE923
:1021C000F04105460E46144600274BE021787DA0DD
:1021D00005F024F820787E2825DC30467649096809
:1021E0008988084475490988884205DD00267248B7
:1021F0000068C088284485B228466F490968C988A4
:1022000008446F490988884201DD002600252278AC
:1022100029463046FFF78FFE6748006880883044C3
:1022200086B2641C1EE0304610306449098888423A
:1022300003DD002605F1100085B228461030604904
:102240000988884201DD00260025224629463046BD
:10225000FFF74DFF06F1100086B2E41C217862A062
:1022600004F0DCFF20780028B0D1BDE8F0812DE932
:10227000F04105460E46144648E020687E2825D8E1
:1022800028464D490968898808444C49098888428C
:1022900005DD002548480068C088304486B23046D5
:1022A00045490968C988084445490988884201DDCB
:1022B00000250026227831462846FFF73CFE3E489E
:1022C00000688088284485B2241D1FE0284610300D
:1022D0003A490988884203DD002506F1100086B2DC
:1022E0003046103036490988884201DD0025002635
:1022F0002788380200EB272087B22246314628463D
:10230000FFF7F5FE05F1100085B2083420680028BB
:10231000B3D1BDE8F0812DE9F04106460D461446E3
:102320002CE02846103026490988884203DD002524
:1023300006F1100086B230461030204909888842E4
:1023400001DD0026002520787E2809DC2278294638
:102350003046FFF7F0FD641C05F1100085B20DE07A
:102360002788380200EB272087B2224629463046CC
:10237000FFF7BDFE05F1100085B2A41C20780028EF
:10238000CFD1BDE8F0812DE9FC4F0C461E464FEA47
:10239000004A9AFBF2FA0AF1010ACDF804A04FEACA
:1023A000044A9AFBF6FA0AF1010ACDF800A02DE0E2
:1023B00070000020720000206C00002064000020EB
:1023C00066000020494C49393334315F44697370E9
:1023D000537472696E674C696E655F454E5F434822
:1023E000313A307825780A00494C49393334315F25
:1023F00044697370537472696E674C696E655F45AA
:102400004E5F4348323A307825780A004FF0000991
:10241000202801DBBDE8FC8F00FB04FABAF1000FB5
:1024200000D1F7E700FB04FABAF5806F00DBF1E7B3
:1024300002FB06FABAF1000F00D1EBE702FB06FA45
:10244000BAF5804F00DBE5E7F34BDDF834A0BAF1D5
:10245000000F2BD100211FE0002517E0DDF82CA094
:102460001AF801A04FF0800B4BFA05FB0AEA0B0AA1
:10247000BAF1000F02D04FF0010A01E04FF0000A5C
:1024800003F801AB05F1010A1FFA8AF5082DE5DB17
:1024900001F1010A1FFA8AF104FB00FA4FEAEA7B14
:1024A0000AEB5B7BB1EBEB0FD6DB2AE000211FE0F0
:1024B000002517E0DDF82CA01AF801A04FF0800BE2
:1024C0004BFA05FB0AEA0B0ABAF1000F02D04FF0F3
:1024D000010A01E04FF0000A03F801AB05F1010A1F
:1024E0001FFA8AF5082DE5DB01F1010A1FFA8AF1CE
:1024F00004FB00FA4FEAEA7B0AEB5B7BB1EBEB0FE4
:10250000D6DBC54BC54F4FF0000C1AE04FF0000A68
:102510004FEA194B00FB0B3ED0460AE00EEB1A4B7C
:102520009BF800B007F808B0DDF804B0DA4408F111
:1025300001089045F2D3DDF800B0D94417440CF1FE
:10254000010CB445E2D3DFF8D4A2CDF830A0DDF819
:1025500030A00AF1010ACDF830A000BF5AE72DE9FA
:10256000F05F81468A4614461D46DDE90A6B002766
:10257000B8462B46224651464846FFF70EFB2C2014
:1025800004F024FE00BF14E04FF000080EE016F83F
:10259000011B594504D1A248008804F02BFE03E03A
:1025A000A048008804F026FE08F10108A045EED3FB
:1025B0007F1CAF42E8D3BDE8F09F2DE9F0478EB015
:1025C0000646884615469946DDE9164A2F4606FB1B
:1025D00005F086B208FB09F01FFA80F874E0217854
:1025E00091A004F01BFE3046384497490988884280
:1025F00004DD002608EB09001FFA80F84046484435
:1026000092490988884201DD0026B046217890A0D1
:1026100004F004FE2078802824DD2F4620880C90CA
:102620000C98010201EB202080B20C90214604A8F6
:1026300000F03AF9012004A94B463A46CDE9001BC7
:10264000029010210846FFF79EFE74484B463A461A
:102650004146CDE9000A3046FFF781FFF01986B206
:10266000E41C2DE0217882A004F0D8FD2F462078CC
:102670002038C0B20D9000228148C1880D9848438F
:102680007F4989884843C117039000EB51707C490A
:10269000096801EBE0004B46CDE901B200903A46F3
:1026A00018211020FFF76FFE5C484B463A46414622
:1026B000CDE9000A3046FFF752FFF01986B2641CDC
:1026C000217870A004F0AAFD2078002887D10EB0F0
:1026D000BDE8F0872DE9F04B8EB080460E461446DB
:1026E0001F46DDE916590D946AE0304620445649EC
:1026F0000988884204DD002608EB04001FFA80F8F0
:102700004046384451490988884201DD0026B046D8
:102710002878802824DD0D9428880B900B980102DE
:1027200001EB202080B20B90294603A800F0BCF8F2
:10273000012003A93B46CDE9001A0290102108466A
:102740000D9AFFF720FE35483B46CDE9000931469A
:1027500040460D9AFFF703FFF01986B2AD1C2FE03B
:10276000204604EBD071C1F34F010D912878203839
:10277000C0B20C9000224248C1880C98484340499E
:10278000898800FB01FB4FEAEB700BEB50703C4972
:10279000096801EBE0003B46CDE901A20090182159
:1027A00010200D9AFFF7EFFD1C483B46CDE90009CC
:1027B000314640460D9AFFF7D2FEF01986B26D1CE5
:1027C0002878002891D10EB0BDE8F08B354908601B
:1027D0007047344800687047124A1080104A1180D0
:1027E0007047104A128802800D4A12880A8070478A
:1027F0000C49088070470A490880704770B5044644
:10280000FFF7E7FFC5882B460F48028821460020C6
:10281000FFF70DFA70BD0000B8400020B80000209E
:102820007200002070000020494C49393334315F78
:10283000446973706C6179537472696E674578315D
:102840003A307825780A00006400002066000020F5
:10285000494C49393334315F446973706C61795341
:102860007472696E674578EFBC9A307825780A00F3
:10287000456E676C6973683A307825780A00000005
:102880007C000020494C49393334315F446973700E
:102890006C6179537472696E674578323A30782585
:1028A000780A00006C0000202DE9F04105460C4636
:1028B0001DA0216804F0B2FC22681046002101F03E
:1028C0009FF90768384601F0ABF80002C6081948BE
:1028D000007848B9012218A1184802F0F9FE1849F9
:1028E0000870012013490870012216A11D4802F04A
:1028F0001AFF134908700846007888B9314619480C
:1029000003F02EFA184B20222946164802F0CAFF7F
:102910000B490870134803F013FA0020BDE8F0815A
:102920004FF0FF30FAE700002A633A307825780A42
:102930000000000094000020303A0000DC54002029
:102940008C000020303A2F737263646174612F55DC
:102950004E49434F44455F48313631362E464F4E3F
:1029600000000000B84400209000002008B50021BD
:10297000FE48FEF7C2F9FD48FEF7F4F800214FF4D7
:102980008050FEF798F82020ADF8000004208DF864
:1029900003006946F648FDF7C5FD4020ADF800008C
:1029A0006946F348FDF7BEFD8020ADF8000069469A
:1029B000EF48FDF7B7FD4FF48070ADF800006946B1
:1029C000EB48FDF7AFFD08BD00B587B001214420FD
:1029D000FEF764F801210803FEF760F82020ADF847
:1029E000180003208DF81A0018208DF81B0006A986
:1029F000DF48FDF797FD8020ADF8180006A9DC48F8
:102A0000FDF790FD4020ADF8180004208DF81B0064
:102A100006A9D748FDF786FD4FF48070ADF8180081
:102A200010208DF81B0006A9D148FDF77BFD002082
:102A3000ADF804004FF48270ADF806000020ADF848
:102A400008000220ADF80A000120ADF80C00400299
:102A5000ADF80E000020ADF81000ADF81200072010
:102A6000ADF8140001A9C148FEF7A2F80121BF4842
:102A7000FEF743F907B000BD10B5044600BF0221C0
:102A8000BA48FEF7BEF90028F9D02146B748FEF74C
:102A900065F900BF0121B548FEF7B3F90028F9D068
:102AA000B248FEF75DF9C0B210BD10B5002400BFFA
:102AB0000221AE48FEF7A5F90028F9D0FF21AB4866
:102AC000FEF74CF900BF0121A848FEF79AF900284B
:102AD000F9D0A648FEF744F9C4B2204610BD70B53F
:102AE000054640F6FF7400E0641EFFF7DEFFA842D3
:102AF00001D0002CF8D10CB9FF2070BD0020FCE7FC
:102B00002DE9FC4106460C461746002546F04000DC
:102B10008DF80000200E8DF80100200C8DF80200C9
:102B2000200A8DF80300E0B28DF804008DF80570DE
:102B300000BF04E01DF80500FFF79EFF6D1C062D89
:102B4000F8D3BDE8FC817FB504460025FF26711C43
:102B50008748FDF796FDFF2200210A20FFF7D0FFEE
:102B60000020FFF7BCFF98B9FE20FFF7B8FF40B97F
:102B700000BF04E0FFF799FF0DF805006D1C102D54
:102B8000F8D3FF20FFF778FFFF20FFF775FF00263F
:102B90004FF480717648FDF772FDFF20FFF76CFF60
:102BA0009DF8000020709DF80100000260806088A0
:102BB0009DF80210084360809DF8030000066060E5
:102BC00060689DF8041040EA0140606060689DF80C
:102BD000051040EA0120606060689DF80610084317
:102BE00060609DF8070020729DF8080060729DF8F3
:102BF00009000006E060E0689DF80A1040EA014024
:102C0000E060E0689DF80B1040EA0120E060E068B9
:102C10009DF80C100843E060207C9DF80D1040EA00
:102C2000111020749DF80D000007000D6082608A6D
:102C30009DF80E10084360829DF80F004008207533
:102C400001206075304604B070BD7FB50446002594
:102C5000FF26711C4648FDF714FDFF2200210920C4
:102C6000FFF74EFF0020FFF73AFF98B9FE20FFF76D
:102C700036FF40B900BF04E0FFF717FF0DF805006D
:102C80006D1C102DF8D3FF20FFF7F6FEFF20FFF795
:102C9000F3FE00264FF480713548FDF7F0FCFF206D
:102CA000FFF7EAFE9DF80000800920709DF8000003
:102CB000C0F3830060709DF8000000F00300A07076
:102CC0009DF80100E0709DF8020020719DF803005E
:102CD00060719DF804000001E080E0889DF8051017
:102CE00040EA1110E0809DF8050000F00F0020720E
:102CF0009DF80600C00960729DF80600C0F38010C0
:102D0000A0729DF80600C0F34010E0729DF8060026
:102D1000C0F300102073002060739DF80600800748
:102D2000000D206113480078012803D01148007875
:102D3000022832D120699DF8071040EA8100206105
:102D400020699DF8081040EA911020619DF8080064
:102D5000C0F3C20020759DF8080000F00700607500
:102D60009DF809004009A07506E000000030014010
:102D700000080140950000209DF80900C0F3820082
:102D8000E0759DF809008007400F2076207E9DF8B1
:102D90000A1040EAD110207613E0FE48007804289B
:102DA0000FD19DF807008006800A206120699DF8F8
:102DB000081040EA0120206120699DF809100843AD
:102DC00020619DF80A00C0F3801004F8190F9DF8E7
:102DD0000A008006400E607060789DF80B1040EA93
:102DE000D11060709DF80B0000F07F00A0709DF87E
:102DF0000C00C009E0709DF80C00C0F34110207178
:102E00009DF80C00C0F3820060719DF80C008007F3
:102E1000000FA071A0799DF80D1040EA9110A071EB
:102E20009DF80D00C0F34010E071002020729DF865
:102E30000D0000F0010060729DF80E00C009A07244
:102E40009DF80E00C0F38010E0729DF80E00C0F3F4
:102E5000401020739DF80E00C0F3001060739DF8C1
:102E60000E00C0F38100A0739DF80E0000F0030077
:102E7000E0739DF80F004008207401206074193C35
:102E8000304604B070BD2DE9F0410446FF252046D0
:102E9000FFF7DBFE054604F12C00FFF754FE054664
:102EA000BC480078012803D0BA480078022825D110
:102EB0002069401C0021C4E91201207ED4E91223BC
:102EC000801C012101FA00F0C117A2FB006703FB7F
:102ED000007002FB0100C4E91260217A01208840E1
:102EE00020650021D4E91223206DA2FB006703FBBB
:102EF000007002FB0100C4E9126016E0A5480078EA
:102F0000042812D12069401C4FF40071A0FB01106D
:102F10004FF480630022A1FB036700FB037001FBF9
:102F20000200C4E91260581020652846BDE8F0810F
:102F3000F8B5002440F6FF754FF480719648FDF710
:102F40009EFBFF20FFF798FD4FF480719248FDF73C
:102F500098FB87224FF4D5710820FFF7D1FD00E0E0
:102F60006D1EFFF7A2FD0646FF2801D1002DF7D107
:102F70000DB9FF20F8BD052E1BD100BF4FF48071A5
:102F80008548FDF77CFBFF20FFF776FD4FF480714D
:102F90008148FDF776FBFF2200210120FFF7B0FDFD
:102FA0000020FFF79CFD0028E8D101207949087036
:102FB00072E0012E70D1002404E0FFF776FD0DF8D9
:102FC0000400641C042CF8D34FF480717248FDF7A0
:102FD00056FBFF20FFF750FD4FF480716E48FDF760
:102FE00050FB9DF80200012856D19DF80300AA2845
:102FF00052D1C82500BFFF2200213720FFF780FDF6
:103000000020FFF76CFD08B9FF20B3E7FF224FF067
:1030100080412920FFF774FD281EA5F1010501D18B
:10302000FF20A7E70020FFF75AFD0028E3D1C825BD
:1030300000BF4FF480715848FDF721FBFF20FFF7D8
:103040001BFD4FF480715448FDF71BFBFF2200214C
:103050003A20FFF755FD0020FFF741FD0028E8D199
:10306000281EA5F10105E4D00DB9FF2082E7002458
:1030700004E0FFF71AFD0DF80400641C042CF8D3DB
:103080009DF8000000F0400018B10420414908708C
:1030900002E002203F4908704FF480713E48FDF77E
:1030A000EEFAFF20FFF7E8FC002063E710B54FF4CD
:1030B00080713948FDF7E5FA952200210846FFF7AF
:1030C0001FFD0120FFF70BFD08B1FF2010BD4FF4DD
:1030D00080713148FDF7D3FAFF20FFF7CDFC0020C7
:1030E000F4E710B50024FFF76FFC4FF480712A4815
:1030F000FDF7C5FA00BF03E0FF20FFF7BDFC641C2D
:10310000092CF9D9002400BFFFF7D0FFFFF710FF0B
:103110002048007818B92046641C0A28F4D81D48B5
:10312000007808B9FF2010BD1C48FFF7ACFEFAE795
:1031300008B5012000909DF8000008BD2DE9F0477A
:10314000064614461D46DDF8208000274FF0FF0993
:1031500010480078042809D14FF40078C2010023F8
:103160002046294603F0A4FF04460D464FF4807123
:103170000948FDF786FAFF2221461120FFF7C0FC1F
:103180000020FFF7ACFCC0B9FE20FFF7A8FCA0B9F7
:1031900000270AE09500002000080140106500208B
:1031A000FFF783FC3070761C7F1C4745F8D3FFF790
:1031B0007CFCFFF77AFC4FF000094FF48071A548C2
:1031C000FDF75DFAFF20FFF757FC4846BDE8F087A2
:1031D0002DE9F05F074615461E46DDE90A9A4FF0D5
:1031E000000800244FF0FF0B9B480078042809D109
:1031F0004FF40079C20100232846314603F058FFFE
:1032000005460E464FF480719248FDF73AFA27E0E2
:1032100029194FF0FF024FF01100FFF771FC002059
:10322000FFF75DFC10B1FF20BDE8F09FFE20FFF727
:1032300056FC98B94FF0000805E0FFF736FC3870EF
:103240007F1C08F10108C845F7D304F50074FFF7A7
:103250002CFCFFF72AFC4FF0000B01E04FF0FF0BB6
:10326000BAF10000AAF1010AD2D14FF48071794875
:10327000FDF705FAFF20FFF7FFFB5846D4E770B5CE
:10328000002518E0FFF711FC044604F01F04052C8C
:1032900004D00B2C04D00D2C06D103E0052605E04C
:1032A0000B2070BD0D20FCE7FF2600BF00BF052EE0
:1032B00000D102E06D1C402DE4D900BF00BFFFF734
:1032C000F4FB0028FBD02046EBE72DE9F04706464B
:1032D00014461D46DDF8208000274FF0FF095E48A8
:1032E0000078042809D14FF40078C2010023204659
:1032F000294603F0DDFE04460D464FF48071554823
:10330000FDF7BFF9FF2221461820FFF7F9FB002047
:10331000FFF7E5FBC0B9FF20FFF7AEFBFE20FFF78C
:10332000ABFB002704E03078FFF7A6FB761C7F1C80
:103330004745F8D3FFF7B9FBFFF7B7FBFFF79FFF50
:10334000052801D14FF000094FF480714148FDF785
:1033500096F9FF20FFF790FB4846BDE8F0872DE97E
:10336000F05F074615461E46DDE90A9A4FF0000851
:1033700000244FF0FF0B38480078042809D14FF49F
:103380000079C20100232846314603F091FE05462C
:103390000E464FF480712F48FDF773F92DE029197F
:1033A0004FF0FF024FF01800FFF7AAFB0020FFF7D5
:1033B00096FB10B1FF20BDE8F09FFF20FFF75CFBFC
:1033C000FE20FFF759FB4FF0000805E03878FFF7C3
:1033D00053FB7F1C08F10108C845F7D304F50074BE
:1033E000FFF763FBFFF761FBFFF749FF052802D1F9
:1033F0004FF0000B01E04FF0FF0BBAF10000AAF113
:10340000010ACCD14FF480711248FDF738F9FF2042
:10341000FFF732FB5846CEE710B500244FF4807119
:103420000C48FDF72EF9FF2200210D20FFF768FB65
:10343000FFF73BFB0446FFF738FB44EA00244FF458
:1034400080710448FDF71BF9FF20FFF715FB2046AC
:1034500010BD0000000801409500002008B50121C2
:103460000920FDF71BFB4FF47060ADF80000102041
:103470008DF8030003208DF802006946FE48FDF731
:1034800051F84FF47040ADF8000028208DF803008B
:1034900003208DF802006946F748FDF743F8012143
:1034A0001120FDF7FBFAF020ADF8000010208DF898
:1034B000030003208DF802006946F048FDF732F85A
:1034C0004FF47060ADF8000028208DF80300032051
:1034D0008DF802006946E948FDF724F808BD38B5C3
:1034E000002400254FF47A700090E3480C30006807
:1034F000C0B240F47061E048FDF7CAF8DE48083019
:10350000006800F4704008B9601E38BD02E0009801
:10351000401E009000980028F9D1D7480830006874
:1035200000F4704010B94FF0FF30EEE7D2480C3095
:1035300000684FF2FF02104040F48071CE48FDF762
:10354000A7F8CD480830006800F47040B0F5805FFF
:1035500009D0B0F5005F08D0B0F5804F07D0B0F5C6
:10356000004F08D105E0592405E0472403E0422438
:1035700001E00D2400BF00BFBF480C3000684FF2CF
:10358000FF02104040F40071BB48FDF781F8BA48D3
:103590000830006800F47040B0F5805F09D0B0F5E5
:1035A000005F08D0B0F5804F07D0B0F5004F08D1CC
:1035B00005E0552405E0482403E04E2401E00C24F6
:1035C00000BF00BFAC480C3000684FF2FF02104053
:1035D00040F48061A848FDF75BF8A7480830006810
:1035E00000F47040B0F5805F09D0B0F5005F08D0FE
:1035F000B0F5804F07D0B0F5004F08D105E0492461
:1036000005E04A2403E04D2401E0082400BF00BF88
:1036100099480C3000684FF2FF02104040F40061FE
:103620009548FDF735F894480830006800F470407C
:10363000B0F5805F09D0B0F5005F08D0B0F5804FDD
:1036400007D0B0F5004F08D105E04F2405E04B242A
:1036500003E04C2401E0502400BF00BF204654E7A3
:1036600038B5432400254FF47A7000908348C06831
:103670004FF20F02104040F0F0018048FDF708F8CB
:103680007E48806800F4706008B9681E38BD02E0AA
:103690000098401E009000980028F9D17748806873
:1036A00000F4706010B94FF0FF30EFE77348C06866
:1036B0004FF60F72104040F010017048FCF7E8FF21
:1036C0006E48806800F47060B0F5807F09D0B0F576
:1036D000007F08D0B0F5806F07D0B0F5006F08D13B
:1036E00005E0572405E0412403E05A2401E0512479
:1036F00000BF00BF6148C0684FF60F72104040F035
:1037000020015E48FCF7C4FF5C48806800F47060EC
:10371000B0F5807F09D0B0F5007F08D0B0F5806F9C
:1037200007D0B0F5006F08D105E0452405E053242B
:1037300003E0582401E0102400BF00BF4F48C068D8
:103740004FF60F72104040F040014C48FCF7A0FFCC
:103750004A48806800F47060B0F5807F09D0B0F509
:10376000007F08D0B0F5806F07D0B0F5006F08D1AA
:1037700005E0522405E0442403E0432401E008244A
:1037800000BF00BF3D48C0684FF60F72104040F0C8
:1037900080013A48FCF77CFF3848806800F470608C
:1037A000B0F5807F09D0B0F5007F08D0B0F5806F0C
:1037B00007D0B0F5006F08D105E0542405E0462499
:1037C00003E0562401E0202400BF00BF20465DE74F
:1037D0002DE9FF5F04460D4690460394D8E9006347
:1037E000324627A003F01AFD21462CA003F016FD57
:1037F000082C22D12C480078002804DD2A480078C3
:10380000401E2949087029480688F01706EB1070F9
:1038100000112549097891FBF0F200FB121087B2E4
:1038200010231A4600213846FEF701FA00202870BE
:10383000A5EB0800002800DD6D1E102C07D11C48E8
:10384000006808B9012000E00020194908600D2C2B
:103850006ED1D8E90063324616A003F0DFFCD8E948
:103860000021104600F0CCF91AA21B49D0F800A0A4
:10387000504600F0AFF831E0000C0140001001406C
:103880000A0A704275666665725F737461727420AD
:10389000303D25236C6C580A0A0000006B65793AAC
:1038A000307825780A0000009C0000206600002087
:1038B000980000200A0A207072696E7420704275A8
:1038C000666665725F7374617274203D25236C6C4B
:1038D000580A0A004E000000B0CF00088146314867
:1038E0000688F01706EB107000112F49097891FB3C
:1038F000F0F0801C1FFA80FB2A480788F81707EBB6
:10390000107000112849097891FBF0F200FB1210A9
:1039100080B20290002010231A465946CDE900904B
:103920000298FEF74AFE20480078401C1E490870A5
:1039300029781EA003F072FC412C01DA202C2ED134
:103940001E48006820B9202C02D003982030039034
:10395000A5EB0800082822DA03982870297818A017
:1039600003F05CFC0F480688F01706EB107000119E
:103970000D49097891FBF0F200FB121087B200208C
:1039800003A910231A46CDE9001001463846FEF778
:1039900014FE6D1C04480078401C03490870BDE803
:1039A000FF9F0000660000209C0000206275666694
:1039B00065723120307825780A00000098000020D8
:1039C000704275666665725F7374617274203078D8
:1039D00025780A002DE9F04106460C4617460025D9
:1039E0003146ECA003F01AFC00E06D1C04EBC500AE
:1039F000406818B154F83500B042F6D104EBC50068
:103A000040680168E9A003F009FC04EBC5004068C8
:103A100010B93846BDE8F08104EBC5004068F9E70D
:103A20002DE9FE430446002500260027A8467F2CEA
:103A300006D804F07F0229466D1C0DF80120C3E072
:103A40004CF28000844213D34CF6BF7084420FD8EE
:103A5000C4F3822228466D1C0DF80020C4F3012116
:103A6000204661F39F1029466D1C0DF80100ABE064
:103A7000D448844216D3D448844213D8C4F3832054
:103A8000C4F3034140EA011228466D1C0DF80020E2
:103A9000C4F30121204661F39F1029466D1C0DF8E7
:103AA000010091E0C948844220D3C94884421DD80E
:103AB000C4F30150C4F3026140EA810228466D1C40
:103AC0000DF80020C4F38320C4F3034140EA01123F
:103AD00028466D1C0DF80020C4F30121204661F337
:103AE0009F1029466D1C0DF801006DE000204FF07D
:103AF0008032A21A70F1F80029DB4FF0BF32FB20B0
:103B0000121B70F1000022DB002029466D1C0DF80D
:103B10000100C4F30150C4F3056140EA8102284664
:103B20006D1C0DF80020C4F38320C4F3034140EA68
:103B3000011228466D1C0DF80020C4F30121204617
:103B400061F39F1029466D1C0DF801003CE0002038
:103B50004FF080324FF68041A21A88412DDB4FF0A2
:103B6000BF324FF6BF50121B70F1000025DB002161
:103B7000084661F39F1029466D1C0DF80100C4F33F
:103B80000150C4F3056140EA810228466D1C0DF81E
:103B90000020C4F38320C4F3034140EA0112284605
:103BA0006D1C0DF80020C4F30121204661F39F1025
:103BB00029466D1C0DF8010006E086A003F02EFBDF
:103BC0004FF0FF30BDE8FE8300200DF80500681CB3
:103BD00020B980A003F022FB0020F3E708E04FEAC1
:103BE000C80086401DF80700064408F101087F1C44
:103BF000AF42F4DB31467DA003F010FB3046E1E735
:103C00002DE9F04F87B004460D46082003F086FCEE
:103C1000039022462B467CA003F000FB0020D4F149
:103C2000FF01A84102D3039830C0A6E04FF6FF7110
:103C30000020091BA84120D3E0B20021090241EA7B
:103C4000106706024FF47F4104EA01000021000AD8
:103C500040EA0168894632463B466EA003F0DEFA30
:103C600042464B466EA003F0D9FA16EB080247EB2A
:103C700009000399C1E900207FE06FF07F41002037
:103C8000091BA8412ED3E0B20021090441EA1047E4
:103C900006044FF47F4104EA01084FF000090902CD
:103CA00004EA01000021000C40EA014A8B4632463A
:103CB0003B4658A003F0B2FA42464B4658A003F0E8
:103CC000ADFA52465B4659A003F0A8FA16EB08017C
:103CD00047EB090011EB0A0240EB0B000399C1E925
:103CE00000204AE00020D4F1FF31A84145D3E0B2E2
:103CF0000021090641EA102706064FF47F4104EA35
:103D000001000021090241EA10694FEA00284FF43E
:103D10007F0104EA01000021000A40EA016A8B46A3
:103D20004FF07F4104EA01000021000E40EA01202B
:103D3000CDE9040132463B4636A003F06FFA424615
:103D40004B4637A003F06AFA52465B4637A003F0B1
:103D500065FA39A0DDE9042303F060FA16EB0801E7
:103D600047EB090011EB0A0340EB0B02DDE904010C
:103D70001B184A410398C0E90032039803C8024661
:103D80000B46CDE900012FA003F048FA039807B0D5
:103D9000BDE8F08F2067657456616C756542794B9C
:103DA0006579206B65793A2523580A002061727283
:103DB00061795B695D2E76616C75653A2523580AD9
:103DC000000000008080E000BFBFEF00808080F036
:103DD000BFBFBFF74572726F72203A20756E6B6E6F
:103DE0006F772073636F70650A0000007574665FFB
:103DF000746F5F756E69636F646520726573756C4F
:103E0000743A2523580A00007372633A25236C6CB8
:103E1000580A0000737472313A25236C6C580A00FA
:103E2000737472323A25236C6C580A0073747233BF
:103E30003A25236C6C580A00737472343A25236C4B
:103E40006C580A00726573756C743A256C6C580A6C
:103E5000000000000146012011B1012904D102E057
:103E600020F0010002E001E0012000BF00BF704728
:103E700070B50446012514B1012C09D107E0FFF704
:103E800030F910B925F0010500E0012502E001E05C
:103E9000012500BF00BF284670BD2DE9FC5F044628
:103EA0000D46164699464FF0040A4FF0000B14B128
:103EB000012C16D114E04FF40070CDE90009A6FBE7
:103EC00000703A4603462846FFF782F98346BBF165
:103ED000000F02D04FF0040A01E04FF0000A03E0A7
:103EE00002E04FF0040A00BF00BF5046BDE8FC9F4F
:103EF0002DE9FC5F05460E4691461C464FF0040A2C
:103F00004FF0000B14B90420BDE8FC9F15B1012D42
:103F100016D114E04FF40070CDE90004A9FB007045
:103F20003A4603463046FFF71AFA8346BBF1000FC4
:103F300002D04FF0040A01E04FF0000A03E002E073
:103F40004FF0040A00BF00BF5046DDE72DE9F047FF
:103F500005460E4614464FF0040915B1012D21D136
:103F60001FE0CEB1012E0BD0022E02D0032E14D1B1
:103F700003E04FF4007020800FE0012020600CE08F
:103F80000D48D0F850C062460023D0E9127138467F
:103F900003F08EF8206000E000BF00BF4FF0000982
:103FA00003E002E04FF0040900BF00BF4846BDE84F
:103FB000F08702487047000010650020000021468D
:103FC00070B503460C4603E014F8015B03F8015B8F
:103FD000151EA2F10102F7D170BD30B5034601E014
:103FE00003F8011B141EA2F10102F9D130BDF0B596
:103FF00003461C460D46002000BF161EA2F101021A
:1040000007D014F8017B15F801CBA7EB0C06301E86
:10401000F3D0F0BD024600E0521C107810B11078C9
:104020008842F9D1107870472DE9F0410446002705
:104030002079F8B1E56A607801232A4604F130015D
:10404000FFF756FF08B1012714E000202071206A15
:10405000281AA16988420DD2E67809E0A0690544D2
:10406000607801232A4604F13001FFF741FF761EF4
:10407000022EF3D23846BDE8F08170B504460D46F5
:104080000026E06AA84210D02046FFF7CDFF064682
:104090005EB9607801232A4604F13001FFF7FDFE86
:1040A00010B14FF0FF350126E562304670BD70B5A6
:1040B00004462046FFF7B8FF0546002D59D1207869
:1040C00003284FD1607901284CD16289002104F185
:1040D0003000FFF782FF552184F82E12AA2184F8C0
:1040E0002F12522084F830005221312001556121D5
:1040F00032200155412133200155722184F81412D8
:1041000084F81512412184F81612612184F81712DF
:10411000217C84F81812208A010A84F81912206977
:10412000010C84F81A122069010E84F81B12217BFD
:1041300084F81C12A089010A84F81D12E068010CA1
:1041400084F81E12E068010E84F81F12E069401C1A
:10415000E0626078012304F13001E26AFFF7C8FEF3
:1041600000206071607800221146FFF7EFFE00B179
:104170000125284670BD0246891E5069801E88426E
:1041800001D8002070479378906A01FB0300F9E79B
:104190002DE9F05F04460D46022D02D36069A84266
:1041A00002D84FF001098FE04FF0FF392078012845
:1041B00004D002283CD003287ED157E02F4607EBDD
:1041C00057076089B7FBF0F0216A00EB010A5146FE
:1041D0002046FFF752FF00B175E038467F1C618929
:1041E000B0FBF1F201FB120104F1300010F8018084
:1041F0006089B7FBF0F0216A00EB010A51462046C6
:10420000FFF73BFF00B15EE06089B7FBF0F100FB18
:10421000117104F13000405C48EA002805F001000B
:1042200010B14FEA181001E0C8F30B0081464AE0D4
:10423000B4F80AA00AEBDA704010B5FBF0F0216A7E
:1042400000EB010B59462046FFF717FF00B13AE09B
:1042500068006189B0FBF1F201FB120104F130004A
:104260000E183078717840EA01292CE0B4F80AA0E1
:104270004FEAEA700AEB90708010B5FBF0F0216A0B
:1042800000EB010B59462046FFF7F7FE00B11AE09C
:10429000A8006189B0FBF1F201FB120104F13000CA
:1042A0000E18F0780006B17840EA0140717840EAD3
:1042B00001203178084300E002E020F0704902E07C
:1042C0004FF0010900BF00BF4846BDE8F09F2DE94F
:1042D000F05F04460E461746022E02D36069B042D4
:1042E00002D84FF00208B3E02078012804D0022859
:1042F00052D0032872D172E0B14609EB59096089A6
:10430000B9FBF0F0216A00EB010A51462046FFF7A5
:10431000B4FE8046B8F1000F00D098E0484609F19D
:1043200001096189B0FBF1F201FB120104F13000D7
:104330000D1806F0010020B1F9B2287861F31F10C2
:1043400000E038462870012020716089B9FBF0F048
:10435000216A00EB010A51462046FFF78EFE804697
:10436000B8F1000F00D072E06089B9FBF0F100FBFA
:10437000119104F130000D1806F0010010B1C7F3DF
:10438000071005E0287800F0F000C7F30321084388
:104390002870012020715AE0B4F80AA00AEBDA7004
:1043A0004010B6FBF0F0216A00EB010B59462046A5
:1043B000FFF763FE8046B8F1000F00D047E07000C1
:1043C0006189B0FBF1F201FB120104F130000D181C
:1043D0002F70380A68700120207138E034E0B4F89A
:1043E0000AA04FEAEA700AEB90708010B6FBF0F07A
:1043F000216A00EB010B59462046FFF73EFE80463E
:10440000B8F1000F00D022E0B0006189B0FBF1F2FA
:1044100001FB120104F130000D18E8780006A978BC
:1044200040EA0140697840EA01202978084300F019
:10443000704007432F70380A6870380CA870380E27
:10444000E8700120207102E04FF0020800BF00BFB9
:104450004046BDE8F09F2DE9F04104460E46022E8D
:1044600002D36069B04201D8022727E0002721E08B
:1044700031462046FFF78CFE054605B91DE0012DAB
:1044800001D1022719E0681C08B9012715E00022B4
:1044900031462046FFF71BFF074607B10DE02069B4
:1044A000401C30B12069401C2061607940F001005F
:1044B00060712E466069B042DAD800BF3846BDE868
:1044C000F0812DE9F04704468946B9F1000F06D185
:1044D000E76817B16069B84215D8012713E049466B
:1044E0002046FFF755FE0646022E02D20120BDE807
:1044F000F087701C08B93046F9E76069B04201D90D
:104500003046F4E74F463D4600BF6D1C6069A84247
:1045100004D80225BD4201D90020E8E729462046FB
:10452000FFF736FE064606B909E0701C08B1012EF9
:1045300001D13046DBE7BD42E7D10020D7E700BF1D
:104540006FF0704229462046FFF7C1FE8046B8F161
:10455000000F08D1B9F1000F05D02A464946204680
:10456000FFF7B5FE8046B8F1000F0BD1E56020697A
:10457000401C78B12069401E2061607940F0010044
:10458000607107E0B8F1010F02D14FF0FF3000E099
:10459000012005462846AAE72DE9F04104460E46CB
:1045A000E680A568012D03D020684069A84202D8A2
:1045B0000220BDE8F0812DB920680078032801D1E0
:1045C0002068456A45B920680089B04201D80220B8
:1045D000EFE72068476A24E021684889C11700EBAB
:1045E000D16149112268927801FB02F812E0294654
:1045F0002068FFF7CDFD0546681C08B90120D8E703
:10460000022D03D320684069A84201D80220D0E7D8
:10461000A6EB08064645EAD229462068FFF7ABFD1F
:104620000746E5600FB90220C3E721684889C11732
:1046300000EBD1614911B6FBF1F1394421612168E8
:104640004889C11700EBD1614911B6FBF1F201FBBA
:1046500012612268303202EB411161610020A8E74B
:104660002DE9F04104468846E088461CB0B208B106
:10467000206910B90420BDE8F08121684889C1177C
:1046800000EBD1614911B6FBF1F201FB1261002987
:1046900071D12069401C2061E06828B92068008938
:1046A000B04268D80420E6E721684889C11700EBCA
:1046B000D1614911B6FBF1F122689278521E114086
:1046C000002958D1E1682068FFF762FD0546012DF9
:1046D00001D80220CFE7681C08B90120CBE7206889
:1046E0004069A84241D8B8F1000F01D10420C2E7C7
:1046F000E1682068FFF7E5FE05460DB90720BAE737
:10470000012D01D10220B6E7681C08B90120B2E7EB
:104710002068FFF789FC08B10120ACE721684A89CD
:1047200001F130000021FFF758FC29462068FFF70F
:1047300022FD2168C86200270EE00120216808716F
:104740002068FFF771FC08B1012094E72068C06A77
:10475000401C2168C8627F1C20688078B842ECD871
:104760002068C06AC01B2168C862E56029462068CD
:10477000FFF701FD2061E68021684889C11700EB41
:10478000D1614911B6FBF1F201FB126122683032AE
:1047900002EB4111616100206DE72DE9F041044613
:1047A0000E4600212046FFF7F7FE0546EDB900272B
:1047B00000BF21692068FFF760FC054605B113E0E2
:1047C00060690078E52802D06069007820B9781C1B
:1047D0000746B04201D107E0002701212046FFF73C
:1047E0003FFF0546002DE4D000BF042D00D1072572
:1047F0002846BDE8F08110B502468C7ECB7E44EAA7
:1048000003201378032B05D10C7D4B7D44EA032351
:1048100040EA034010BD81760B0AC3760A0C02758C
:104820000B0E437570472DE9F04780460C46A17E7C
:10483000E07E41EA002010B10020BDE8F08720783A
:1048400000F03F00401E00EB800101EBC0064FF07E
:104850000109002524E0F848405D205CF649495DE7
:104860002144497840EA0127B9F1000F11D0FF2E09
:104870000BD2384602F0EAFB82463146761C38F805
:10488000110002F0E3FB824501D00020D5E7B946D4
:1048900005E04FF6FF70874201D00020CDE76D1C88
:1048A0000D2DD8D3207800F0400038B1B9F1000FB9
:1048B00004D038F8160008B10020BEE70120BCE79C
:1048C000F0B504468F7EC87E47EA002008B100207C
:1048D000F0BD087800F03F00401E00EB800707EBBA
:1048E000C002012600231AE0D348C05C085CD24F06
:1048F000FF5C0F447F7840EA07254EB1FF2A01D3C1
:104900000020E5E72E461046521C24F8105005E022
:104910004FF6FF70854201D00020D9E75B1C0D2BBC
:10492000E2D3087800F0400030B1FF2A01D3002024
:10493000CEE7002024F812000120C9E7F0B50446B4
:104940001D464D730F27CF7200270F738F76BC461D
:1049500081F81BC0571E07EB870C0CEBC70600271E
:1049600038463B4600BF4FF6FF77B84203D0374684
:10497000761C34F81700DFF8C0C21CF803C001F839
:104980000C000712DFF8B0C21CF803C08C448CF88E
:10499000017008B94FF6FF705F1C3B460D2FE2D344
:1049A0004FF6FF77B84202D034F816700FB942F0D4
:1049B00040020A70F0BD2DE9FF4F83B007469146D3
:1049C0001E460B2238460499FFF7FAFA052E19D92C
:1049D000B04612E039F802BB00250CE0584668F3F7
:1049E0005F0080464FEA6B0B08F4803010B19348AB
:1049F00088EA00086D1C102DF0D3B9F800000028DB
:104A0000E8D14646072500BF06F00F0000F1300A46
:104A1000BAF1390F03DD0AF1070000F0FF0A28465A
:104A20006D1E01A901F800A03609002EECD17E20F0
:104A3000485500240BE0385D812807DB385DFE28EF
:104A400004DC681EA04200D106E0641C641CAC4279
:104A500002D2385D2028EED100BF00BF082D04D25D
:104A600028466D1C01A9095C00E020212046641C39
:104A70003954082CF2D307B0BDE8F08F30B50146A9
:104A800000200B2200BF431003EBC01411F8015BA0
:104A90006319D8B2531E1A1EF5D130BD2DE9F04767
:104AA000044600212046FFF777FD074617B1384638
:104AB000BDE8F0874FF0FF09CA464FF6FF7020842B
:104AC00000BF21692068FFF7D8FA074607B157E011
:104AD00065692E780EB9042752E0E87A00F03F08A5
:104AE000E52E05D008F0080040B1B8F10F0F05D051
:104AF0004FF0FF094FF6FF7020843AE0B8F10F0F36
:104B00001CD1E06978B306F0400030B195F80DA0F3
:104B100026F04006B146E08820844E450AD1687BE5
:104B2000504507D12946E069FFF77DFE10B1A9F194
:104B3000010000E0FF2000F0FF091AE0B9F1000FCA
:104B400005D12846FFF79AFF504500D118E0A0692B
:104B5000C07A00F0010038B90B222846A169FFF79E
:104B600046FA08B90CE004E04FF0FF094FF6FF7079
:104B7000208400212046FFF773FD0746002FA0D0B8
:104B800000BF384694E72DE9F05F04468A464FF0AF
:104B9000FF09CB46042753E021692068FFF76DFA2F
:104BA000074607B14FE0666935780DB904274AE03A
:104BB000F07A00F03F08E52D0AD02E2D08D028F01D
:104BC0002000082801D1012000E00020504502D03B
:104BD0004FF0FF0929E0B8F10F0F1AD105F040009E
:104BE00030B196F80DB025F04005A946E088208444
:104BF0004D450AD1707B584507D13146E069FFF732
:104C00005FFE10B1A9F1010000E0FF2000F0FF09F4
:104C10000BE0B9F1000F04D13046FFF72FFF5845E4
:104C200002D04FF6FF7020840DE000212046FFF7F0
:104C300017FD074627B106E078EE000821100100B5
:104C400020690028A8D100BF0FB10020206138469C
:104C5000BDE8F09F2DE9FE4F0446D4F81880D4F843
:104C60001C900C2241466846FFF7AAF900BF9DF848
:104C70000B0000F0010020B3002088F80B00E06179
:104C800001260CE033464A4669464046FFF793FE4C
:104C90002046FFF703FF054605B102E0761C642EAF
:104CA000F0D300BF642E02D10720BDE8FE8F042D93
:104CB00001D02846F9E79DF80B0088F80B00C4F8EE
:104CC0001C909DF80B0000F0020060B1002600E08F
:104CD000761C39F816000028FAD106F119000D21CA
:104CE000B0FBF1F700E0012739462046FFF755FDFC
:104CF000054645BB781E071E25D0E088C11B20460F
:104D0000FFF74AFC0546F5B9A069FFF7B7FE8246F2
:104D100000BF21692068FFF7B0F9054605B111E031
:104D2000FAB253466169E069FFF708FE0120216885
:104D3000087100212046FFF793FC054615B9781E3F
:104D4000071EE6D100BFC5B921692068FFF795F9B4
:104D5000054695B9202200216069FFF73EF90B2234
:104D6000D4E90501FFF72CF9A069C07A00F018001A
:104D700061690873012021680871284695E770B5BC
:104D80000446E688208C4FF6FF72904201D13046EF
:104D900000E0208C01462046FFF7FEFB05460DBBD8
:104DA00000BF21692068FFF768F9054605B115E0E5
:104DB000202200216069FFF710F9E5206169087081
:104DC000012021680871E088B04200D306E000218C
:104DD0002046FFF745FC0546002DE2D000BF042D1C
:104DE00000D10225284670BD2DE9F05F80460D46B2
:104DF00005F10907D8F81000002843D0D8F814406E
:104E0000002626E03046761C14F80090B9F1200FF9
:104E100000D11EE0B9F1050F01D14FF0E509092ECF
:104E200002D12E2007F8010BB9F1410F0EDBB9F1C9
:104E30005A0F0BDC207B092E01D3102100E0082142
:104E4000084018B109F1200000F0FF0907F8019BA4
:104E500000BF0B2ED6D3E07A2872E07F0106A07F38
:104E600041EA0041607F41EA0020217F0843286039
:104E7000217E607E41EA0020A880A17DE07D41EA9C
:104E80000020E88000203870A86998B30026AF6938
:104E9000D8F8100060B3E86950B3B8F820004FF6B6
:104EA000FF71884224D0D8F81CB01BE00021504686
:104EB00002F092F88246BAF1000F01D1002616E006
:104EC000BAF1FF0F04DD4FEA2A223046761C3A542D
:104ED000E869401EB04201D8002608E03046761C42
:104EE00007F800A03BF8021BB1F1000ADED100BFB9
:104EF0000020B855BDE8F09F2DE9F34F83B08146FF
:104F000004980068019002E00198401C019001980B
:104F100000782F28F8D0019800785C28F4D0D9F8D0
:104F20001CA000252F4600BF38467F1C01990C5C51
:104F3000202C03DB2F2C01D05C2C00D132E0FF2D84
:104F400003D3062005B0BDE8F08FE4B2812C13DB5B
:104F5000E0B2FE2810DC38467F1C01990E5C06EB9F
:104F6000042084B2402E01DB7E2E05DD802E01DB85
:104F7000FE2E01DD0620E5E70121204602F02CF897
:104F800004460CB90620DDE7802C06DA2146F8A09D
:104F9000FFF740F808B10620D4E728466D1C2AF830
:104FA0001040C1E700BF0198C11904980160202C8E
:104FB00001DA042000E00020804608E0681E3AF88C
:104FC0001040202C02D02E2C00D002E06D1E002DAF
:104FD000F4D100BF0DB90620B4E700202AF815006F
:104FE0000B222021D9F81800FEF7F7FF002700E078
:104FF0007F1C3AF817002028FAD03AF817002E281C
:10500000F6D00FB148F0030800E06D1E25B1681E10
:105010003AF810002E28F8D10020064602904FF0F2
:10502000080B00BF38467F1C3AF8104004B963E013
:10503000202C03D02E2C04D1AF4202D048F003081C
:10504000F0E70298584501D2AF4214D1BBF10B0FE3
:1050500002D148F003084FE0AF4201D048F0030806
:10506000AF4200D948E02F46082002904FF00B0BCA
:10507000B006060ED6E7802C09DB204601F0E6FFDD
:105080000021009001F0A8FF044648F00208FF2C20
:1050900011DDABF101000299884204D848F0030801
:1050A000CDF808B0BEE72212D9F818300298411C9A
:1050B00002911A5419E024B12146B0A0FEF7AAFFCC
:1050C00018B15F2448F003080FE0412C04DB5A2C90
:1050D00002DC46F0020608E0612C06DB7A2C04DCD8
:1050E00046F00106A4F1200084B2D9F818300298E5
:1050F000411C02911C5495E700BFD9F818000078B4
:10510000E52803D10520D9F818100870BBF1080F65
:1051100001D1B006060E06F00C000C2803D006F0F4
:105120000300032801D148F0020808F0020058B932
:1051300006F00300012801D148F0100806F00C0029
:10514000042801D148F00808D9F8180080F80B802D
:105150000020F7E62DE9F3410446019800782F2856
:1051600003D0019800785C2802D10198401C01907E
:105170000020A06001980078202807D20021204656
:10518000FFF70AFA05460020606128E000BF01A988
:105190002046FFF7B1FE054605B11FE02046FFF7A8
:1051A0007DFC0546A069C67A3DB1042D04D100BF3F
:1051B00006F0040000B9052510E006F0040000B177
:1051C0000CE06769F87A00F0100008B9052505E0E1
:1051D00039462068FFF70FFBA060D8E700BF2846DC
:1051E000BDE8FC8170B502464FF0FF301568E5B1AF
:1051F000116800E0491C0D78202D02D30D783A2D5E
:10520000F8D10D783A2D0FD1146814F8015BA5F18F
:1052100030030A2B07D28C4205D1022B03D2184649
:105220004D1C2946156070BD002000BFFBE770B51E
:1052300004460D4600202071401EE06229462046AB
:10524000FEF71BFF08B1032070BD94F82E1294F8EE
:105250002F0241EA00204AF65521884201D002205F
:10526000F2E794F86900010694F8680041EA004109
:1052700094F8670041EA002094F86610084320F093
:105280007F404049884201D10020DDE794F8850045
:10529000010694F8840041EA004194F8830041EA51
:1052A000002094F88210084320F07F40354988425E
:1052B00001D10020C8E70120C6E72DE9F74F8AB0E9
:1052C00000210A9801600B98FFF78CFF099009985C
:1052D000002803DA0B200DB0BDE8F08F2A490998A9
:1052E00051F820400CB90C20F5E70A9804602078AA
:1052F00078B16078FEF7AEFD814609F0010040B953
:105300000C9820B109F0040008B10A20E3E700205E
:10531000E1E700202070099860706078FEF7A8FD32
:10532000814609F0010008B10320D4E70C9820B1B0
:1053300009F0040008B10A20CDE7607804F10A0200
:105340000221FEF703FE38B96089B0F5007F03DB68
:105350006089B0F5805F01DD0120BCE70027394698
:105360002046FFF764FF0546012D0FD0D5BB41E075
:10537000222A3A3C3E3F7C7F000000002B2C3B3D24
:105380005B5D000046415400A000002000261AE0AA
:1053900004F5F77000EB061898F8040070B198F85F
:1053A0000B00010698F80A0041EA004198F809004C
:1053B00041EA002098F80810084300E0002002A904
:1053C00041F82600761C042EE2D3002606B1761E94
:1053D00000BF02A850F826702FB139462046FFF7CB
:1053E00026FF01E006E0022005461DB1701C0646BE
:1053F0000428EED3032D01D101206CE70DB10D205F
:1054000069E73B20015D94F83C0041EA0020618996
:10541000884201D00D205EE74620015D94F84700E8
:1054200041EA002ABAF1000F0ED194F857000106A4
:1054300094F8560041EA004194F8550041EA0020F2
:1054400094F8541040EA010AC4F818A04020005D06
:10545000E070E078012804D0E078022801D00D2027
:1054600039E7E0780AFB00FA3D20005DA070A078E3
:1054700018B1A078411E084008B10D202BE741204B
:10548000015D94F8420041EA002020816089C11743
:1054900000EBD1614911228992FBF1F301FB132149
:1054A00009B10D2017E74320015D94F8440041EA5B
:1054B00000200890089870B994F85300010694F8F9
:1054C000520041EA004194F8510041EA002094F86A
:1054D0005010084308903E20015D94F83F0041EAD7
:1054E00000200190019808B90D20F4E66089C117E9
:1054F00000EBD1614911228992FBF1F201995144EB
:1055000011440791DDE90710884201D20D20E2E63F
:10551000DDE90710401AA178B0FBF1FBBBF1000FE9
:1055200001D10D20D7E6012540F6F670834500D362
:1055300002254FF6F670834500D303250BF10200D8
:105540006061E76101983844206207983844A0629E
:10555000032D16D1208908B10D20BCE694F85F0018
:10556000010694F85E0041EA004194F85D0041EACA
:10557000002094F85C100843606260698000069027
:1055800014E0208908B90D20A5E6206A5044606225
:10559000022D02D16069400007E0207D00F001008B
:1055A000616901EB410100EB510006906089401EEA
:1055B000069908446189B0FBF1F0A169884201D9DC
:1055C0000D2088E64FF0FF302061E06080206071A0
:1055D000032D5AD194F8601094F8610041EA00203C
:1055E000012852D1791C2046FEF747FDE8BB002078
:1055F000607194F82E1294F82F0241EA00204AF6C6
:105600005521884241D13320005D01063220005DE2
:1056100041EA00413120005D41EA002094F8301059
:105620000843F549884230D194F81702010694F8EE
:10563000160241EA004194F8150241EA002094F86C
:1056400014120843ED4988421FD194F81B02010649
:1056500094F81A0241EA004194F8190241EA002044
:1056600094F818120843206100E00EE094F81F023D
:10567000010694F81E0241EA004194F81D0241EA35
:10568000002094F81C120843E0602570DC48008874
:10569000401C80B2DA490880E08000201BE670B52B
:1056A00005462C4684B1206870B12068007858B156
:1056B0002068C088A188884206D121684878FEF712
:1056C000C9FB00F0010008B1092070BD0020FCE713
:1056D000F7B582B016460398019001A8FFF782FD46
:1056E0000546002D02DA0B2005B0F0BDC54850F884
:1056F00025400CB100202070029810B100200299C2
:105700000870C049029841F82500029808B1012E9E
:1057100001D00020E8E7002203A902A8FFF7CDFD91
:1057200007463846E0E72DE9F743ADF50C7D054621
:10573000164625B909200DF50F7DBDE8F083002040
:10574000286006F01F0626F001028DA983A8FFF746
:10575000B4FD0746002F74D180A88990CDF828D2D7
:1057600083A88D99FFF7F6FC0746889C0FB904B90A
:10577000062706F01C0000285CD04FB1042F03D18F
:1057800083A8FFF767FA074646F00806889C09E0F9
:10579000E07A00F0110008B1072703E006F00400EA
:1057A00000B10827002F55D106F00800002851D07D
:1057B000FEF7FFFB804684F80E804FEA1821E17364
:1057C0004FEA184121744FEA1861617484F8168019
:1057D0004FEA1821E1754FEA184121764FEA186126
:1057E00061760020E072207700216177A177E17770
:1057F00021468398FEF7FFFF814600212046FFF7F0
:105800000AF8012083990871B9F1000F22D083981A
:10581000D0F82C8049468398FEF71DFE0746CFB985
:10582000A9F101008399C86041468398FEF725FCE1
:1058300007460FE077B9E07A00F0100010B10427B6
:1058400008E02DE006F0020020B1E07A00F001004F
:1058500000B1072747B906F0080008B146F0200656
:105860008398C06AE8612C62D7B9AE710020E871F4
:1058700021468398FEF7BFFF2861E07F0106A07FE5
:1058800041EA0041607F41EA0020217F0843E8604F
:105890000020A860A861839828602868C088A88034
:1058A000384648E72DE9FF4F85B0044615469A462D
:1058B000DDF818B00020CAF800002046FFF7EFFE20
:1058C0000490049818B1049809B0BDE8F08FE0790D
:1058D00008B1E079F8E7A07900F0010008B90720E5
:1058E000F2E7D4E90210401A02900298854200D9EA
:1058F000029DC2E021684989A068B0FBF1F201FB7A
:105900001200002877D121684989A068B0FBF1F026
:1059100021688978491E084000F0FF09B9F1000F9D
:1059200017D1A06810B92069039004E0616920686C
:10593000FEF72EFC03900398022802D20220E071A9
:10594000C2E70398401C10B90120E071BCE703983E
:10595000606161692068FEF70EFC064616B90220F8
:10596000E071B1E74E4420684089B5FBF0F8B8F12A
:10597000000F2DD009EB080021688978884203D9EF
:1059800020688078A0EB09082168487843463246B1
:105990005946FEF782FA10B10120E07194E7A07930
:1059A00000F0400078B1A069801B40450BD2A1698E
:1059B000891B23685B8901FB03B021684A8904F1D4
:1059C0002401FEF7FDFA2068408900FB08F74AE051
:1059D000A069B04228D0A07900F04000C0B1216891
:1059E0004878012304F12401A269FEF781FA58B135
:1059F0000120E07168E718E0525261417272416122
:105A0000A8000020A0000020A07920F04000A07194
:105A1000216848780123324604F12401FEF73DFA5B
:105A200010B10120E0714FE7A66121684989A068A3
:105A3000B0FBF1F201FB1200216849890F1AAF4255
:105A400000D92F4621684989A068B0FBF1F201FB1B
:105A5000120104F1240008443A46014601905846D8
:105A6000FEF7AEFA00BFBB44A0683844A060DAF885
:105A700000003844CAF80000ED1B002D7FF43AAF57
:105A8000002021E72DE9FF4F83B0044615469B46D1
:105A9000049801900020CBF800002046FFF7FFFD9E
:105AA0000290029818B1029807B0BDE8F08FE07933
:105AB00008B1E079F8E7A07900F0020008B9072002
:105AC000F2E7A0682844A168884200D20025CFE010
:105AD00021684989A068B0FBF1F201FB120000289F
